{
  "contractName": "ERC1404",
  "abi": [
    {
      "constant": true,
      "inputs": [],
      "name": "name",
      "outputs": [
        {
          "name": "",
          "type": "string"
        }
      ],
      "payable": false,
      "stateMutability": "view",
      "type": "function"
    },
    {
      "constant": true,
      "inputs": [],
      "name": "SUCCESS_CODE",
      "outputs": [
        {
          "name": "",
          "type": "uint8"
        }
      ],
      "payable": false,
      "stateMutability": "view",
      "type": "function"
    },
    {
      "constant": true,
      "inputs": [],
      "name": "totalSupply",
      "outputs": [
        {
          "name": "",
          "type": "uint256"
        }
      ],
      "payable": false,
      "stateMutability": "view",
      "type": "function"
    },
    {
      "constant": true,
      "inputs": [],
      "name": "decimals",
      "outputs": [
        {
          "name": "",
          "type": "uint8"
        }
      ],
      "payable": false,
      "stateMutability": "view",
      "type": "function"
    },
    {
      "constant": true,
      "inputs": [],
      "name": "RECIPIENT_NOT_APPROVED",
      "outputs": [
        {
          "name": "",
          "type": "uint8"
        }
      ],
      "payable": false,
      "stateMutability": "view",
      "type": "function"
    },
    {
      "constant": true,
      "inputs": [],
      "name": "DO_NOT_SEND_TO_TOKEN_CONTRACT",
      "outputs": [
        {
          "name": "",
          "type": "uint8"
        }
      ],
      "payable": false,
      "stateMutability": "view",
      "type": "function"
    },
    {
      "constant": true,
      "inputs": [],
      "name": "DO_NOT_SEND_TO_EMPTY_ADDRESS",
      "outputs": [
        {
          "name": "",
          "type": "uint8"
        }
      ],
      "payable": false,
      "stateMutability": "view",
      "type": "function"
    },
    {
      "constant": true,
      "inputs": [
        {
          "name": "",
          "type": "address"
        }
      ],
      "name": "lockupPeriods",
      "outputs": [
        {
          "name": "",
          "type": "uint256"
        }
      ],
      "payable": false,
      "stateMutability": "view",
      "type": "function"
    },
    {
      "constant": true,
      "inputs": [],
      "name": "symbol",
      "outputs": [
        {
          "name": "",
          "type": "string"
        }
      ],
      "payable": false,
      "stateMutability": "view",
      "type": "function"
    },
    {
      "constant": true,
      "inputs": [],
      "name": "SENDER_TOKENS_LOCKED",
      "outputs": [
        {
          "name": "",
          "type": "uint8"
        }
      ],
      "payable": false,
      "stateMutability": "view",
      "type": "function"
    },
    {
      "constant": true,
      "inputs": [],
      "name": "contractOwner",
      "outputs": [
        {
          "name": "",
          "type": "address"
        }
      ],
      "payable": false,
      "stateMutability": "view",
      "type": "function"
    },
    {
      "constant": true,
      "inputs": [
        {
          "name": "",
          "type": "address"
        }
      ],
      "name": "approvedReceivers",
      "outputs": [
        {
          "name": "",
          "type": "bool"
        }
      ],
      "payable": false,
      "stateMutability": "view",
      "type": "function"
    },
    {
      "constant": true,
      "inputs": [],
      "name": "MAX_UINT",
      "outputs": [
        {
          "name": "",
          "type": "uint256"
        }
      ],
      "payable": false,
      "stateMutability": "view",
      "type": "function"
    },
    {
      "inputs": [
        {
          "name": "_contractOwner",
          "type": "address"
        },
        {
          "name": "_symbol",
          "type": "string"
        },
        {
          "name": "_name",
          "type": "string"
        },
        {
          "name": "_decimals",
          "type": "uint8"
        },
        {
          "name": "_totalSupply",
          "type": "uint256"
        }
      ],
      "payable": false,
      "stateMutability": "nonpayable",
      "type": "constructor"
    },
    {
      "anonymous": false,
      "inputs": [
        {
          "indexed": true,
          "name": "from",
          "type": "address"
        },
        {
          "indexed": true,
          "name": "to",
          "type": "address"
        },
        {
          "indexed": false,
          "name": "value",
          "type": "uint256"
        }
      ],
      "name": "Transfer",
      "type": "event"
    },
    {
      "anonymous": false,
      "inputs": [
        {
          "indexed": true,
          "name": "owner",
          "type": "address"
        },
        {
          "indexed": true,
          "name": "spender",
          "type": "address"
        },
        {
          "indexed": false,
          "name": "value",
          "type": "uint256"
        }
      ],
      "name": "Approval",
      "type": "event"
    },
    {
      "constant": true,
      "inputs": [
        {
          "name": "from",
          "type": "address"
        },
        {
          "name": "to",
          "type": "address"
        },
        {
          "name": "value",
          "type": "uint256"
        }
      ],
      "name": "detectTransferRestriction",
      "outputs": [
        {
          "name": "",
          "type": "uint8"
        }
      ],
      "payable": false,
      "stateMutability": "view",
      "type": "function"
    },
    {
      "constant": true,
      "inputs": [
        {
          "name": "restrictionCode",
          "type": "uint8"
        }
      ],
      "name": "messageForTransferRestriction",
      "outputs": [
        {
          "name": "",
          "type": "string"
        }
      ],
      "payable": false,
      "stateMutability": "pure",
      "type": "function"
    },
    {
      "constant": false,
      "inputs": [
        {
          "name": "_account",
          "type": "address"
        },
        {
          "name": "_updatedValue",
          "type": "bool"
        }
      ],
      "name": "setApprovedReceiver",
      "outputs": [],
      "payable": false,
      "stateMutability": "nonpayable",
      "type": "function"
    },
    {
      "constant": true,
      "inputs": [
        {
          "name": "_account",
          "type": "address"
        }
      ],
      "name": "getApprovedReceiver",
      "outputs": [
        {
          "name": "",
          "type": "bool"
        }
      ],
      "payable": false,
      "stateMutability": "view",
      "type": "function"
    },
    {
      "constant": false,
      "inputs": [
        {
          "name": "_account",
          "type": "address"
        }
      ],
      "name": "lock",
      "outputs": [],
      "payable": false,
      "stateMutability": "nonpayable",
      "type": "function"
    },
    {
      "constant": false,
      "inputs": [
        {
          "name": "_account",
          "type": "address"
        },
        {
          "name": "_timestamp",
          "type": "uint256"
        }
      ],
      "name": "lockUntil",
      "outputs": [],
      "payable": false,
      "stateMutability": "nonpayable",
      "type": "function"
    },
    {
      "constant": false,
      "inputs": [
        {
          "name": "_account",
          "type": "address"
        }
      ],
      "name": "unlock",
      "outputs": [],
      "payable": false,
      "stateMutability": "nonpayable",
      "type": "function"
    },
    {
      "constant": true,
      "inputs": [
        {
          "name": "_account",
          "type": "address"
        }
      ],
      "name": "getLockup",
      "outputs": [
        {
          "name": "",
          "type": "uint256"
        }
      ],
      "payable": false,
      "stateMutability": "view",
      "type": "function"
    },
    {
      "constant": true,
      "inputs": [
        {
          "name": "owner",
          "type": "address"
        }
      ],
      "name": "balanceOf",
      "outputs": [
        {
          "name": "balance",
          "type": "uint256"
        }
      ],
      "payable": false,
      "stateMutability": "view",
      "type": "function"
    },
    {
      "constant": true,
      "inputs": [
        {
          "name": "owner",
          "type": "address"
        },
        {
          "name": "spender",
          "type": "address"
        }
      ],
      "name": "allowance",
      "outputs": [
        {
          "name": "remaining",
          "type": "uint256"
        }
      ],
      "payable": false,
      "stateMutability": "view",
      "type": "function"
    },
    {
      "constant": false,
      "inputs": [
        {
          "name": "to",
          "type": "address"
        },
        {
          "name": "value",
          "type": "uint256"
        }
      ],
      "name": "transfer",
      "outputs": [
        {
          "name": "success",
          "type": "bool"
        }
      ],
      "payable": false,
      "stateMutability": "nonpayable",
      "type": "function"
    },
    {
      "constant": false,
      "inputs": [
        {
          "name": "spender",
          "type": "address"
        },
        {
          "name": "value",
          "type": "uint256"
        }
      ],
      "name": "approve",
      "outputs": [
        {
          "name": "success",
          "type": "bool"
        }
      ],
      "payable": false,
      "stateMutability": "nonpayable",
      "type": "function"
    },
    {
      "constant": false,
      "inputs": [
        {
          "name": "spender",
          "type": "address"
        },
        {
          "name": "newApprovalValue",
          "type": "uint256"
        },
        {
          "name": "expectedApprovedValue",
          "type": "uint256"
        },
        {
          "name": "nonce",
          "type": "uint8"
        }
      ],
      "name": "safeApprove",
      "outputs": [
        {
          "name": "success",
          "type": "bool"
        }
      ],
      "payable": false,
      "stateMutability": "nonpayable",
      "type": "function"
    },
    {
      "constant": true,
      "inputs": [
        {
          "name": "spender",
          "type": "address"
        }
      ],
      "name": "allowanceAndNonce",
      "outputs": [
        {
          "name": "spenderAllowance",
          "type": "uint256"
        },
        {
          "name": "nonce",
          "type": "uint8"
        }
      ],
      "payable": false,
      "stateMutability": "view",
      "type": "function"
    },
    {
      "constant": false,
      "inputs": [
        {
          "name": "from",
          "type": "address"
        },
        {
          "name": "to",
          "type": "address"
        },
        {
          "name": "value",
          "type": "uint256"
        }
      ],
      "name": "transferFrom",
      "outputs": [
        {
          "name": "success",
          "type": "bool"
        }
      ],
      "payable": false,
      "stateMutability": "nonpayable",
      "type": "function"
    }
  ],
  "bytecode": "0x60806040523480156200001157600080fd5b506040516200220f3803806200220f833981018060405260a08110156200003757600080fd5b810190808051906020019092919080516401000000008111156200005a57600080fd5b828101905060208101848111156200007157600080fd5b81518560018202830111640100000000821117156200008f57600080fd5b50509291906020018051640100000000811115620000ac57600080fd5b82810190506020810184811115620000c357600080fd5b8151856001820283011164010000000082111715620000e157600080fd5b50509291906020018051906020019092919080519060200190929190505050600073ffffffffffffffffffffffffffffffffffffffff168573ffffffffffffffffffffffffffffffffffffffff16141562000188576040517f08c379a0000000000000000000000000000000000000000000000000000000008152600401808060200182810382526021815260200180620021ee6021913960400191505060405180910390fd5b8360009080519060200190620001a09291906200026e565b508260019080519060200190620001b99291906200026e565b5081600260006101000a81548160ff021916908360ff1602179055508060038190555084600460006101000a81548173ffffffffffffffffffffffffffffffffffffffff021916908373ffffffffffffffffffffffffffffffffffffffff160217905550600354600560008773ffffffffffffffffffffffffffffffffffffffff1673ffffffffffffffffffffffffffffffffffffffff1681526020019081526020016000208190555050505050506200031d565b828054600181600116156101000203166002900490600052602060002090601f016020900481019282601f10620002b157805160ff1916838001178555620002e2565b82800160010185558215620002e2579182015b82811115620002e1578251825591602001919060010190620002c4565b5b509050620002f19190620002f5565b5090565b6200031a91905b8082111562000316576000816000905550600101620002fc565b5090565b90565b611ec1806200032d6000396000f3fe608060405234801561001057600080fd5b50600436106101c45760003560e01c80636e0113f8116100f9578063c0601a8111610097578063d4ce141511610071578063d4ce14151461098f578063dd62ed3e14610a17578063e5b5019a14610a8f578063f435f5a714610aad576101c4565b8063c0601a81146108c5578063ce606ee0146108e9578063d09c8cf414610933576101c4565b80638f40600b116100d35780638f40600b1461073057806395d89b4114610780578063a9059cbb14610803578063befd92fe14610869576101c4565b80636e0113f8146105e057806370a082311461062e5780637f4ab1dd14610686576101c4565b80632f6c493c116101665780634b5f0280116101405780634b5f0280146104e85780634f52bf731461050c578063611929a21461053057806367afd1cc14610588576101c4565b80632f6c493c1461045c578063313ce567146104a05780634a544148146104c4576101c4565b806318160ddd116101a257806318160ddd146102d657806323b872dd146102f457806324fcaee11461037a5780632b629b5e146103df576101c4565b806306fdde03146101c9578063095ea7b31461024c5780630e969a05146102b2575b600080fd5b6101d1610af1565b6040518080602001828103825283818151815260200191508051906020019080838360005b838110156102115780820151818401526020810190506101f6565b50505050905090810190601f16801561023e5780820380516001836020036101000a031916815260200191505b509250505060405180910390f35b6102986004803603604081101561026257600080fd5b81019080803573ffffffffffffffffffffffffffffffffffffffff16906020019092919080359060200190929190505050610b8f565b604051808215151515815260200191505060405180910390f35b6102ba610ba3565b604051808260ff1660ff16815260200191505060405180910390f35b6102de610ba8565b6040518082815260200191505060405180910390f35b6103606004803603606081101561030a57600080fd5b81019080803573ffffffffffffffffffffffffffffffffffffffff169060200190929190803573ffffffffffffffffffffffffffffffffffffffff16906020019092919080359060200190929190505050610bae565b604051808215151515815260200191505060405180910390f35b6103bc6004803603602081101561039057600080fd5b81019080803573ffffffffffffffffffffffffffffffffffffffff169060200190929190505050610e71565b604051808381526020018260ff1660ff1681526020019250505060405180910390f35b610442600480360360808110156103f557600080fd5b81019080803573ffffffffffffffffffffffffffffffffffffffff1690602001909291908035906020019092919080359060200190929190803560ff169060200190929190505050610f90565b604051808215151515815260200191505060405180910390f35b61049e6004803603602081101561047257600080fd5b81019080803573ffffffffffffffffffffffffffffffffffffffff169060200190929190505050611161565b005b6104a86111a9565b604051808260ff1660ff16815260200191505060405180910390f35b6104cc6111bc565b604051808260ff1660ff16815260200191505060405180910390f35b6104f06111c1565b604051808260ff1660ff16815260200191505060405180910390f35b6105146111c6565b604051808260ff1660ff16815260200191505060405180910390f35b6105726004803603602081101561054657600080fd5b81019080803573ffffffffffffffffffffffffffffffffffffffff1690602001909291905050506111cb565b6040518082815260200191505060405180910390f35b6105ca6004803603602081101561059e57600080fd5b81019080803573ffffffffffffffffffffffffffffffffffffffff1690602001909291905050506111e3565b6040518082815260200191505060405180910390f35b61062c600480360360408110156105f657600080fd5b81019080803573ffffffffffffffffffffffffffffffffffffffff1690602001909291908035906020019092919050505061122c565b005b6106706004803603602081101561064457600080fd5b81019080803573ffffffffffffffffffffffffffffffffffffffff169060200190929190505050611274565b6040518082815260200191505060405180910390f35b6106b56004803603602081101561069c57600080fd5b81019080803560ff1690602001909291905050506112bd565b6040518080602001828103825283818151815260200191508051906020019080838360005b838110156106f55780820151818401526020810190506106da565b50505050905090810190601f1680156107225780820380516001836020036101000a031916815260200191505b509250505060405180910390f35b61077e6004803603604081101561074657600080fd5b81019080803573ffffffffffffffffffffffffffffffffffffffff169060200190929190803515159060200190929190505050611409565b005b610788611464565b6040518080602001828103825283818151815260200191508051906020019080838360005b838110156107c85780820151818401526020810190506107ad565b50505050905090810190601f1680156107f55780820380516001836020036101000a031916815260200191505b509250505060405180910390f35b61084f6004803603604081101561081957600080fd5b81019080803573ffffffffffffffffffffffffffffffffffffffff16906020019092919080359060200190929190505050611502565b604051808215151515815260200191505060405180910390f35b6108ab6004803603602081101561087f57600080fd5b81019080803573ffffffffffffffffffffffffffffffffffffffff169060200190929190505050611519565b604051808215151515815260200191505060405180910390f35b6108cd61156f565b604051808260ff1660ff16815260200191505060405180910390f35b6108f1611574565b604051808273ffffffffffffffffffffffffffffffffffffffff1673ffffffffffffffffffffffffffffffffffffffff16815260200191505060405180910390f35b6109756004803603602081101561094957600080fd5b81019080803573ffffffffffffffffffffffffffffffffffffffff16906020019092919050505061159a565b604051808215151515815260200191505060405180910390f35b6109fb600480360360608110156109a557600080fd5b81019080803573ffffffffffffffffffffffffffffffffffffffff169060200190929190803573ffffffffffffffffffffffffffffffffffffffff169060200190929190803590602001909291905050506115ba565b604051808260ff1660ff16815260200191505060405180910390f35b610a7960048036036040811015610a2d57600080fd5b81019080803573ffffffffffffffffffffffffffffffffffffffff169060200190929190803573ffffffffffffffffffffffffffffffffffffffff16906020019092919050505061174b565b6040518082815260200191505060405180910390f35b610a976117d2565b6040518082815260200191505060405180910390f35b610aef60048036036020811015610ac357600080fd5b81019080803573ffffffffffffffffffffffffffffffffffffffff1690602001909291905050506117da565b005b60018054600181600116156101000203166002900480601f016020809104026020016040519081016040528092919081815260200182805460018160011615610100020316600290048015610b875780601f10610b5c57610100808354040283529160200191610b87565b820191906000526020600020905b815481529060010190602001808311610b6a57829003601f168201915b505050505081565b6000610b9b8383611825565b905092915050565b600081565b60035481565b60008383836000610bc08484846115ba565b9050600060ff168160ff1614610bd5826112bd565b90610c7b576040517f08c379a00000000000000000000000000000000000000000000000000000000081526004018080602001828103825283818151815260200191508051906020019080838360005b83811015610c40578082015181840152602081019050610c25565b50505050905090810190601f168015610c6d5780820380516001836020036101000a031916815260200191505b509250505060405180910390fd5b50600660008973ffffffffffffffffffffffffffffffffffffffff1673ffffffffffffffffffffffffffffffffffffffff16815260200190815260200160002060008873ffffffffffffffffffffffffffffffffffffffff1673ffffffffffffffffffffffffffffffffffffffff16815260200190815260200160002054861115610d51576040517f08c379a0000000000000000000000000000000000000000000000000000000008152600401808060200182810382526038815260200180611e5e6038913960400191505060405180910390fd5b610dd7600660008a73ffffffffffffffffffffffffffffffffffffffff1673ffffffffffffffffffffffffffffffffffffffff16815260200190815260200160002060003373ffffffffffffffffffffffffffffffffffffffff1673ffffffffffffffffffffffffffffffffffffffff16815260200190815260200160002054876119c3565b600660008a73ffffffffffffffffffffffffffffffffffffffff1673ffffffffffffffffffffffffffffffffffffffff16815260200190815260200160002060003373ffffffffffffffffffffffffffffffffffffffff1673ffffffffffffffffffffffffffffffffffffffff16815260200190815260200160002081905550610e62888888611a4c565b60019450505050509392505050565b6000806000600660003373ffffffffffffffffffffffffffffffffffffffff1673ffffffffffffffffffffffffffffffffffffffff16815260200190815260200160002060008573ffffffffffffffffffffffffffffffffffffffff1673ffffffffffffffffffffffffffffffffffffffff1681526020019081526020016000205490506000600760003373ffffffffffffffffffffffffffffffffffffffff1673ffffffffffffffffffffffffffffffffffffffff16815260200190815260200160002060008673ffffffffffffffffffffffffffffffffffffffff1673ffffffffffffffffffffffffffffffffffffffff16815260200190815260200160002060009054906101000a900460ff1690508181935093505050915091565b6000600660003373ffffffffffffffffffffffffffffffffffffffff1673ffffffffffffffffffffffffffffffffffffffff16815260200190815260200160002060008673ffffffffffffffffffffffffffffffffffffffff1673ffffffffffffffffffffffffffffffffffffffff168152602001908152602001600020548314611066576040517f08c379a0000000000000000000000000000000000000000000000000000000008152600401808060200182810382526046815260200180611e186046913960600191505060405180910390fd5b600760003373ffffffffffffffffffffffffffffffffffffffff1673ffffffffffffffffffffffffffffffffffffffff16815260200190815260200160002060008673ffffffffffffffffffffffffffffffffffffffff1673ffffffffffffffffffffffffffffffffffffffff16815260200190815260200160002060009054906101000a900460ff1660ff168260ff161461114d576040517f08c379a000000000000000000000000000000000000000000000000000000000815260040180806020018281038252603c815260200180611ddc603c913960400191505060405180910390fd5b6111578585611825565b9050949350505050565b6000600960008373ffffffffffffffffffffffffffffffffffffffff1673ffffffffffffffffffffffffffffffffffffffff1681526020019081526020016000208190555050565b600260009054906101000a900460ff1681565b600181565b600381565b600481565b60096020528060005260406000206000915090505481565b6000600960008373ffffffffffffffffffffffffffffffffffffffff1673ffffffffffffffffffffffffffffffffffffffff168152602001908152602001600020549050919050565b80600960008473ffffffffffffffffffffffffffffffffffffffff1673ffffffffffffffffffffffffffffffffffffffff168152602001908152602001600020819055505050565b6000600560008373ffffffffffffffffffffffffffffffffffffffff1673ffffffffffffffffffffffffffffffffffffffff168152602001908152602001600020549050919050565b60606040518060a001604052806040518060400160405280600781526020017f535543434553530000000000000000000000000000000000000000000000000081525081526020016040518060400160405280601681526020017f524543495049454e54204e4f5420415050524f5645440000000000000000000081525081526020016040518060400160405280601481526020017f53454e44455220544f4b454e53204c4f434b454400000000000000000000000081525081526020016040518060400160405280601d81526020017f444f204e4f542053454e4420544f20544f4b454e20434f4e545241435400000081525081526020016040518060400160405280601c81526020017f444f204e4f542053454e4420544f20454d5054592041444452455353000000008152508152508260ff16600581106113fd57fe5b60200201519050919050565b80600860008473ffffffffffffffffffffffffffffffffffffffff1673ffffffffffffffffffffffffffffffffffffffff16815260200190815260200160002060006101000a81548160ff0219169083151502179055505050565b60008054600181600116156101000203166002900480601f0160208091040260200160405190810160405280929190818152602001828054600181600116156101000203166002900480156114fa5780601f106114cf576101008083540402835291602001916114fa565b820191906000526020600020905b8154815290600101906020018083116114dd57829003601f168201915b505050505081565b600061150f338484611a4c565b6001905092915050565b6000600860008373ffffffffffffffffffffffffffffffffffffffff1673ffffffffffffffffffffffffffffffffffffffff16815260200190815260200160002060009054906101000a900460ff169050919050565b600281565b600460009054906101000a900473ffffffffffffffffffffffffffffffffffffffff1681565b60086020528060005260406000206000915054906101000a900460ff1681565b60008073ffffffffffffffffffffffffffffffffffffffff168373ffffffffffffffffffffffffffffffffffffffff1614156115f95760049050611744565b3073ffffffffffffffffffffffffffffffffffffffff168373ffffffffffffffffffffffffffffffffffffffff1614156116365760039050611744565b600460009054906101000a900473ffffffffffffffffffffffffffffffffffffffff1673ffffffffffffffffffffffffffffffffffffffff168473ffffffffffffffffffffffffffffffffffffffff1614156116955760009050611744565b600860008473ffffffffffffffffffffffffffffffffffffffff1673ffffffffffffffffffffffffffffffffffffffff16815260200190815260200160002060009054906101000a900460ff166116ef5760019050611744565b600960008573ffffffffffffffffffffffffffffffffffffffff1673ffffffffffffffffffffffffffffffffffffffff1681526020019081526020016000205442101561173f5760029050611744565b600090505b9392505050565b6000600660008473ffffffffffffffffffffffffffffffffffffffff1673ffffffffffffffffffffffffffffffffffffffff16815260200190815260200160002060008373ffffffffffffffffffffffffffffffffffffffff1673ffffffffffffffffffffffffffffffffffffffff16815260200190815260200160002054905092915050565b600160000381565b6001600003600960008373ffffffffffffffffffffffffffffffffffffffff1673ffffffffffffffffffffffffffffffffffffffff1681526020019081526020016000208190555050565b6000600760003373ffffffffffffffffffffffffffffffffffffffff1673ffffffffffffffffffffffffffffffffffffffff16815260200190815260200160002060008473ffffffffffffffffffffffffffffffffffffffff1673ffffffffffffffffffffffffffffffffffffffff168152602001908152602001600020600081819054906101000a900460ff168092919060010191906101000a81548160ff021916908360ff1602179055505081600660003373ffffffffffffffffffffffffffffffffffffffff1673ffffffffffffffffffffffffffffffffffffffff16815260200190815260200160002060008573ffffffffffffffffffffffffffffffffffffffff1673ffffffffffffffffffffffffffffffffffffffff168152602001908152602001600020819055508273ffffffffffffffffffffffffffffffffffffffff163373ffffffffffffffffffffffffffffffffffffffff167f8c5be1e5ebec7d5bd14f71427d1e84f3dd0314c0f7b2291e5b200ac8c7c3b925846040518082815260200191505060405180910390a36001905092915050565b600082821115611a3b576040517f08c379a000000000000000000000000000000000000000000000000000000000815260040180806020018281038252600f8152602001807f556e646572666c6f77206572726f72000000000000000000000000000000000081525060200191505060405180910390fd5b600082840390508091505092915050565b8282826000611a5c8484846115ba565b9050600060ff168160ff1614611a71826112bd565b90611b17576040517f08c379a00000000000000000000000000000000000000000000000000000000081526004018080602001828103825283818151815260200191508051906020019080838360005b83811015611adc578082015181840152602081019050611ac1565b50505050905090810190601f168015611b095780820380516001836020036101000a031916815260200191505b509250505060405180910390fd5b50600560008773ffffffffffffffffffffffffffffffffffffffff1673ffffffffffffffffffffffffffffffffffffffff16815260200190815260200160002054851115611bcd576040517f08c379a00000000000000000000000000000000000000000000000000000000081526004018080602001828103825260128152602001807f496e737566666963656e7420746f6b656e73000000000000000000000000000081525060200191505060405180910390fd5b611c16600560008973ffffffffffffffffffffffffffffffffffffffff1673ffffffffffffffffffffffffffffffffffffffff16815260200190815260200160002054866119c3565b600560008973ffffffffffffffffffffffffffffffffffffffff1673ffffffffffffffffffffffffffffffffffffffff16815260200190815260200160002081905550611ca2600560008873ffffffffffffffffffffffffffffffffffffffff1673ffffffffffffffffffffffffffffffffffffffff1681526020019081526020016000205486611d53565b600560008873ffffffffffffffffffffffffffffffffffffffff1673ffffffffffffffffffffffffffffffffffffffff168152602001908152602001600020819055508573ffffffffffffffffffffffffffffffffffffffff168773ffffffffffffffffffffffffffffffffffffffff167fddf252ad1be2c89b69c2b068fc378daa952ba7f163c4a11628f55a4df523b3ef876040518082815260200191505060405180910390a350505050505050565b600080828401905083811015611dd1576040517f08c379a000000000000000000000000000000000000000000000000000000000815260040180806020018281038252600e8152602001807f4f766572666c6f77206572726f7200000000000000000000000000000000000081525060200191505060405180910390fd5b809150509291505056fe546865206e6f6e636520646f6573206e6f74206d61746368207468652063757272656e74207472616e7366657220617070726f76616c206e6f6e636554686520657870656374656420617070726f76656420616d6f756e7420646f6573206e6f74206d61746368207468652061637475616c20617070726f76656420616d6f756e7454686520617070726f76656420616c6c6f77616e6365206973206c6f776572207468616e20746865207472616e7366657220616d6f756e74a165627a7a7230582082f996a815ad93b551179f35a023ac4c83d7cd69850ea85e82153054e8bc37b80029546f6b656e206f776e657220616464726573732063616e6e6f7420626520307830",
  "source": "pragma solidity ^ 0.5 .0;\n\ncontract ERC1404 {\n  string public symbol;\n  string public name;\n  uint8 public decimals;\n  uint256 public totalSupply;\n  address public contractOwner;\n\n\n  uint8 public constant SUCCESS_CODE = 0;\n  uint8 public constant RECIPIENT_NOT_APPROVED = 1;\n  uint8 public constant SENDER_TOKENS_LOCKED = 2;\n  uint8 public constant DO_NOT_SEND_TO_TOKEN_CONTRACT = 3;\n  uint8 public constant DO_NOT_SEND_TO_EMPTY_ADDRESS = 4;\n\n  uint256 public constant MAX_UINT = uint(0) - uint(1); // TODO: hardcode this value?\n\n  mapping(address => uint256) private _balances;\n  mapping(address => mapping(address => uint256)) private _allowed;\n  mapping(address => mapping(address => uint8)) private _approvalNonces;\n\n  mapping(address => bool) public approvedReceivers; // TODO: may want to map address => uint256 for max holdings\n  mapping(address => uint256) public lockupPeriods; // unix timestamp to lock funds until\n\n  event Transfer(address indexed from, address indexed to, uint256 value);\n  event Approval(address indexed owner, address indexed spender, uint256 value);\n\n  /// @notice Checks if a transfer is restricted, reverts if it is\n  /// @param from Sending address\n  /// @param to Receiving address\n  /// @param value Amount of tokens being transferred\n  /// @dev Defining this modifier is not required by the standard, using detectTransferRestriction and appropriately emitting TransferRestricted is however\n  modifier checkRestrictions(address from, address to, uint256 value) {\n    uint8 restrictionCode = detectTransferRestriction(from, to, value);\n    require(restrictionCode == SUCCESS_CODE, messageForTransferRestriction(restrictionCode));\n    _;\n  }\n\n  constructor(\n    address _contractOwner,\n    string memory _symbol,\n    string memory _name,\n    uint8 _decimals,\n    uint256 _totalSupply\n  ) public {\n    require(_contractOwner != address(0), \"Token owner address cannot be 0x0\");\n\n    symbol = _symbol;\n    name = _name;\n    decimals = _decimals;\n    totalSupply = _totalSupply;\n    contractOwner = _contractOwner;\n\n    _balances[_contractOwner] = totalSupply;\n  }\n  /******* ERC1404 FUNCTIONS ***********/\n\n  /// @notice Detects if a transfer will be reverted and if so returns an appropriate reference code\n  /// @param from Sending address\n  /// @param to Receiving address\n  /// @param value Amount of tokens being transferred\n  /// @return Code by which to reference message for rejection reasoning\n  function detectTransferRestriction(address from, address to, uint256 value) public view returns(uint8) {\n    if (to == address(0)) return DO_NOT_SEND_TO_EMPTY_ADDRESS;\n    if (to == address(this)) return DO_NOT_SEND_TO_TOKEN_CONTRACT;\n    if (from == contractOwner) return SUCCESS_CODE;\n\n    if (!approvedReceivers[to]) return RECIPIENT_NOT_APPROVED;\n    if (now < lockupPeriods[from]) return SENDER_TOKENS_LOCKED;\n\n    return SUCCESS_CODE;\n  }\n\n  /// @notice Returns a human-readable message for a given restriction code\n  /// @param restrictionCode Identifier for looking up a message\n  /// @return Text showing the restriction's reasoning\n  function messageForTransferRestriction(uint8 restrictionCode) public pure returns(string memory) {\n    return [\"SUCCESS\",\n      \"RECIPIENT NOT APPROVED\",\n      \"SENDER TOKENS LOCKED\",\n      \"DO NOT SEND TO TOKEN CONTRACT\",\n      \"DO NOT SEND TO EMPTY ADDRESS\"\n    ][restrictionCode];\n  }\n\n  function setApprovedReceiver(address _account, bool _updatedValue) public {\n    approvedReceivers[_account] = _updatedValue;\n  }\n\n  function getApprovedReceiver(address _account) public view returns(bool) {\n    return approvedReceivers[_account];\n  }\n\n  function lock(address _account) public {\n    lockupPeriods[_account] = MAX_UINT;\n  }\n\n  function lockUntil(address _account, uint256 _timestamp) public {\n    lockupPeriods[_account] = _timestamp;\n  }\n\n  function unlock(address _account) public {\n    lockupPeriods[_account] = 0;\n  }\n\n  function getLockup(address _account) public view returns(uint256) {\n    return lockupPeriods[_account];\n  }\n  /******* ERC20 FUNCTIONS ***********/\n\n  function balanceOf(address owner) public view returns(uint256 balance) {\n    return _balances[owner];\n  }\n\n  function allowance(address owner, address spender) public view returns(uint256 remaining) {\n    return _allowed[owner][spender];\n  }\n\n  function transfer(address to, uint256 value) public returns(bool success) {\n    _transfer(msg.sender, to, value);\n    return true;\n  }\n\n  /*  IT IS RECOMMENDED THAT YOU USE THE safeApprove() FUNCTION INSTEAD OF approve() TO AVOID A TIMING ISSUES WITH THE ERC20 STANDARD.\n      The approve function implements the standard to maintain backwards compatibility with ERC20.\n      Read more about the race condition exploit of approve here https://github.com/ethereum/EIPs/issues/20#issuecomment-263524729\n   */\n  function approve(address spender, uint256 value) public returns(bool success) {\n    return _approve(spender, value);\n  }\n\n  // Use safeApprove() instead of approve() to avoid the race condition exploit which is a known security hole in the ERC20 standard\n  function safeApprove(address spender, uint256 newApprovalValue, uint256 expectedApprovedValue, uint8 nonce) public\n  returns(bool success) {\n    require(expectedApprovedValue == _allowed[msg.sender][spender], \"The expected approved amount does not match the actual approved amount\");\n    require(nonce == _approvalNonces[msg.sender][spender], \"The nonce does not match the current transfer approval nonce\");\n    return _approve(spender, newApprovalValue);\n  }\n\n  // gets the current allowed transfers for a sender and receiver along with the spender's nonce\n  function allowanceAndNonce(address spender) external view returns(uint256 spenderAllowance, uint8 nonce) {\n    uint256 _allowance = _allowed[msg.sender][spender];\n    uint8 _nonce = _approvalNonces[msg.sender][spender];\n    return (_allowance, _nonce);\n  }\n\n  /********** INTERNAL FUNCTIONS **********/\n  function transferFrom(address from, address to, uint256 value) public checkRestrictions(from, to, value) returns(bool success) {\n    require(value <= _allowed[from][to], \"The approved allowance is lower than the transfer amount\");\n    _allowed[from][msg.sender] = sub(_allowed[from][msg.sender], value);\n    _transfer(from, to, value);\n    return true;\n  }\n\n  function _approve(address spender, uint256 value) internal returns(bool success) {\n    // use a nonce to enforce expected approval amounts for the approve and safeApprove functions\n    _approvalNonces[msg.sender][spender]++; // intentional allowance for an overflow\n    _allowed[msg.sender][spender] = value;\n    emit Approval(msg.sender, spender, value);\n    return true;\n  }\n\n  function _transfer(address from, address to, uint256 value) internal checkRestrictions(from, to, value) {\n    require(value <= _balances[to], \"Insufficent tokens\");\n    _balances[from] = sub(_balances[from], value);\n    _balances[to] = add(_balances[to], value);\n    emit Transfer(from, to, value);\n  }\n\n  /********** SAFE MATH **********/\n  function sub(uint256 a, uint256 b) internal pure returns(uint256 result) {\n    require(b <= a, \"Underflow error\");\n    uint256 c = a - b;\n    return c;\n  }\n\n  function add(uint256 a, uint256 b) internal pure returns(uint256 result) {\n    uint256 c = a + b;\n    require(c >= a, \"Overflow error\");\n    return c;\n  }\n}",
  "sourcePath": "/Users/noahthorp/dev_github/comakery-security-token/contracts/ERC1404.sol",
  "compiler": {
    "name": "solc",
    "version": "0.5.8+commit.23d335f2.Emscripten.clang"
  },
  "schemaVersion": "3.0.12",
  "updatedAt": "2019-08-30T23:43:42.900Z",
  "devdoc": {
    "methods": {
      "detectTransferRestriction(address,address,uint256)": {
        "params": {
          "from": "Sending address",
          "to": "Receiving address",
          "value": "Amount of tokens being transferred"
        },
        "return": "Code by which to reference message for rejection reasoning"
      },
      "messageForTransferRestriction(uint8)": {
        "params": {
          "restrictionCode": "Identifier for looking up a message"
        },
        "return": "Text showing the restriction's reasoning"
      }
    }
  },
  "userdoc": {
    "methods": {
      "balanceOf(address)": {
        "notice": "***** ERC20 FUNCTIONS **********"
      },
      "detectTransferRestriction(address,address,uint256)": {
        "notice": "Detects if a transfer will be reverted and if so returns an appropriate reference code"
      },
      "messageForTransferRestriction(uint8)": {
        "notice": "Returns a human-readable message for a given restriction code"
      },
      "transferFrom(address,address,uint256)": {
        "notice": "******** INTERNAL FUNCTIONS *********"
      }
    }
  }
}